:100000000C945D000C9485000C9485000C94850084
:100010000C9485000C9485000C9485000C9485004C
:100020000C9485000C9485000C9485000C949D051F
:100030000C9485000C9485000C9485000C9485002C
:100040000C9453050C9485000C9421050C94FB042E
:100050000C9485000C9485000C9485000C9485000C
:100060000C9485000C94850000000008000201003B
:100070000003040700000000000000000000000072
:10008000250028002B0000000000240027002A0083
:10009000040404040404040402020202020203032E
:1000A0000303030301020408102040800102040836
:1000B0001020010204081020590611241FBECFEFA2
:1000C000D8E0DEBFCDBF11E0A0E0B1E0ECE8F9E19F
:1000D00002C005900D92A234B107D9F722E0A2E444
:1000E000B1E001C01D92A33AB207E1F710E0CDE5FF
:1000F000D0E004C02197FE010E94BE0CCC35D10790
:10010000C9F70E9488070C94C40C0C94000090E07E
:10011000FC01EC55FF4F249180579F4FFC018491C7
:10012000882399F090E0880F991FFC01EA57FF4F50
:10013000A591B491FC01E458FF4F859194918FB73C
:10014000F894EC91E22BEC938FBF0895AF92BF929D
:10015000CF92DF92EF92FF920F931F93CF93DF9393
:100160006C017B018B01040F151FEB015E01AE18C2
:10017000BF08C017D10759F06991D601ED91FC91E4
:100180000190F081E02DC6010995892B79F7C50111
:10019000DF91CF911F910F91FF90EF90DF90CF9063
:1001A000BF90AF900895FC01538D448D252F30E012
:1001B000842F90E0821B930B541710F0CF96089574
:1001C00001970895FC01918D828D981761F0A28DA1
:1001D000AE0FBF2FB11D5D968C91928D9F5F9F7367
:1001E000928F90E008958FEF9FEF0895FC01918D1D
:1001F000828D981731F0828DE80FF11D858D90E08A
:1002000008958FEF9FEF0895FC01918D228D892F26
:1002100090E0805C9F4F821B91098F73992708950E
:1002200085E591E00E94040121E0892B09F420E09A
:10023000822F089580E090E0892B29F00E94100120
:1002400081110C9400000895FC01A48DA80FB92F12
:10025000B11DA35ABF4F2C91848D90E001968F73EE
:100260009927848FA689B7892C93A089B1898C910D
:10027000837080648C93938D848D981306C002885C
:10028000F389E02D80818F7D80830895EF92FF9226
:100290000F931F93CF93DF93EC0181E0888F9B8DA9
:1002A0008C8D98131AC0E889F989808185FF15C063
:1002B0009FB7F894EE89FF896083E889F989808186
:1002C0008370806480839FBF81E090E0DF91CF9155
:1002D0001F910F91FF90EF900895F62E0B8D10E077
:1002E0000F5F1F4F0F731127E02E8C8D8E110CC0E6
:1002F0000FB607FCFACFE889F989808185FFF5CF31
:10030000CE010E942401F1CFEB8DEC0FFD2FF11DEA
:10031000E35AFF4FF0829FB7F8940B8FEA89FB896D
:1003200080818062CFCFCF93DF93EC01888D8823CB
:10033000B9F0AA89BB89E889F9898C9185FD03C048
:10034000808186FD0DC00FB607FCF7CF8C9185FF2D
:10035000F2CF808185FFEDCFCE010E942401E9CF4D
:10036000DF91CF91089590E0FC01E859FF4F24916F
:10037000FC01EC55FF4F3491FC01E057FF4FE49135
:10038000EE23C9F0222339F0233001F1A8F4213003
:1003900019F1223029F1F0E0EE0FFF1FE458FF4F72
:1003A000A591B4918FB7F894EC91611126C0309566
:1003B0003E233C938FBF08952730A9F02830C9F021
:1003C000243049F7809180008F7D03C080918000A8
:1003D0008F7780938000DFCF84B58F7784BDDBCFAC
:1003E00084B58F7DFBCF8091B0008F778093B00074
:1003F000D2CF8091B0008F7DF9CF3E2BDACF1F9303
:10040000CF93DF93182FEB010E948700209739F4D8
:1004100060E0812FDF91CF911F910C94B301CF3F0A
:10042000D10511F461E0F5CFE12FF0E0E859FF4F7D
:10043000E491E33031F140F4E130B1F0E230E1F049
:10044000C038D1057CF7E4CFE73029F1E83059F125
:10045000E430B1F780918000806280938000D09377
:100460008B00C0938A0004C084B5806884BDC7BD7A
:10047000DF91CF911F91089584B5806284BDC8BD7E
:10048000F7CF80918000806880938000D0938900AE
:10049000C0938800EDCF8091B00080688093B00059
:1004A000C093B300E5CF8091B00080628093B0002C
:1004B000C093B400DDCF3FB7F8948091480190918C
:1004C0004901A0914A01B0914B0126B5A89B05C0F6
:1004D0002F3F19F00196A11DB11D3FBFBA2FA92FC3
:1004E000982F8827BC01CD01620F711D811D911DC0
:1004F00042E0660F771F881F991F4A95D1F708952C
:100500002FB7F894609144017091450180914601A4
:10051000909147012FBF0895DC01EC91EC3090F5EC
:1005200011968C91119728E830E0281B310987FD3E
:100530003395220F331F220F331F6217730784F086
:1005400012968C9128E532E0281B310987FD3395FE
:10055000220F331F220F331F621773070CF49B0106
:1005600022503109220F331F4FB7F8948E2F90E09D
:10057000FC01EE0FFF1FE80FF91FE85CFD4F32830F
:1005800021834FBF08951F93CF93DF93EC01162F64
:1005900088818C3008F04DC0862F0E9487008881AA
:1005A000282F30E0F901EE0FFF1FE20FF31FE85C88
:1005B000FD4F1F736081607C612B608319821A82FA
:1005C0002CE0622F0E94B20C829FB001112430E017
:1005D00020E0AB01420F531FFA01EE0FFF1FE40FA3
:1005E000F51FE85CFD4F908196FD16C02F5F3F4FD1
:1005F0002C30310571F781110FC01092800082E01C
:10060000809381001092850010928400B19A8091AD
:100610006F00826080936F00E8818E2F90E0FC0174
:10062000EE0FFF1FE80FF91FE85CFD4F808180642B
:1006300080838881DF91CF911F9108950F931F933D
:10064000CF93DF93EC016D8B70E00E94C3028B812E
:100650009C8110E000E097FD02C00D851E858AA1F7
:10066000B801882321F06F857889601B710BCE015A
:100670000E948C0218870F831E830D83B801110F0F
:10068000880B990B0E948A0A69877A878B879C87D7
:10069000DF91CF911F910F910895AF92BF92CF92AA
:1006A000DF92EF92FF920F931F93CF93DF93EC01B2
:1006B0000E94800209891A892B893C89601B710B71
:1006C000820B930B643171058105910508F4A5C077
:1006D0000E948002698B7A8B8B8B9C8B8E8D8823FA
:1006E00009F477C06D817E812F813885261B370BF9
:1006F000398F288F8F8D882309F46BC04E895F89CD
:1007000088279927841B950B281739072CF0C901D6
:10071000421753070CF4CA01998F888F680F791F0D
:100720007E836D83C984DA84EB84FC84072E000CFD
:10073000880B990B0E948A0AA70196010E940A0C55
:100740002A8D3B8D4C8D5D8D0E94E90AA701960193
:100750000E940B0C5B016C016D857E85072E000CE1
:10076000880B990B0E948A0A7B018C019B01AC01CA
:10077000B501C6010E94830A87FD14C06F85788980
:10078000072E000C880B990B0E948A0A7B018C01B2
:100790009B01AC01B501C6010E94AD0C181614F006
:1007A00075018601C701D80189879A87AB87BC8705
:1007B000B701C8010E94770CAB012AA1222329F0BE
:1007C0002F853889A901461B570BBA01CE010E941B
:1007D0008C02EF80F88408A11F8D69857A858B854E
:1007E0009C850E94770CC701861B970B099643973F
:1007F00010F5002391F0112381F0FE82ED821F8E0F
:10080000E8818E2F90E0FC01EE0FFF1FE80FF91F2B
:10081000E85CFD4F80818F7B80839F8D81E08927FD
:10082000DF91CF911F910F91FF90EF90DF90CF90CC
:10083000BF90AF900895002359F0111109C081E0D5
:100840008F8F6D89062E000C770BCE010E94C3029C
:1008500019A2E3CFCF92DF92EF92FF92CF93DF9373
:10086000EC01EB81FC81CD84DE840D2C000CEE08C4
:10087000FF082F853889032E000C440B550B2C19CB
:100880003D094E095F09DF016E177F070CF4DB019C
:100890000E94F30B9F01FF0F440B550B0E94C90BE5
:1008A000C20ED31EE41EF51ED886CF82DF91CF91F3
:1008B000FF90EF90DF90CF9008951F93CF93DF9339
:1008C00000D000D0CDB7DEB785E591E00E94E20010
:1008D00085E591E00E94E20010E08A3379F0E1E0E2
:1008E000F0E0EC0FFD1FE10FF11D17FDFA9580837D
:1008F0001F5F85E591E00E94E200EFCFCE010196F7
:100900000E945D0A182F85E591E00E94E200805365
:10091000990B8230910520F4682F812F0E94B3013A
:1009200085E591E00E94E2008A3011F08D30C1F738
:1009300085E591E00E94F6008A3021F485E591E09A
:100940000E94E2000F900F900F900F90DF91CF91D7
:100950001F910895FC0101900020E9F73197AF0144
:10096000481B590BBC0185E591E00C94A6008F92C1
:100970009F92AF92BF920F931F93CF93DF93CDB708
:10098000DEB7A1970FB6F894DEBF0FBECDBF19A298
:10099000423008F44AE08E010F5D1F4F842E912CE7
:1009A000B12CA12CA50194010E94A70BE62FB9013F
:1009B000CA01EA30F4F4E05DD801EE938D01232BF7
:1009C000242B252B79F790E080E0109719F0CD01CA
:1009D0000E94AA04A1960FB6F894DEBF0FBECDBF49
:1009E000DF91CF911F910F91BF90AF909F908F900B
:1009F0000895E95CE1CF1F920F920FB60F92112478
:100A00002F933F934F935F936F937F938F939F9316
:100A1000AF93BF93EF93FF9385E591E00E9424018C
:100A2000FF91EF91BF91AF919F918F917F916F91C6
:100A30005F914F913F912F910F900FBE0F901F909C
:100A400018951F920F920FB60F9211242F938F9328
:100A50009F93EF93FF93E0916501F0916601808190
:100A6000E0916B01F0916C0182FD1BC0908180913F
:100A70006E018F5F8F7320916F01821741F0E091BB
:100A80006E01F0E0EB5AFE4F958F80936E01FF915F
:100A9000EF919F918F912F910F900FBE0F901F900C
:100AA00018958081F4CF1F920F920FB60F921124E8
:100AB0002F933F938F939F93AF93BF938091440164
:100AC00090914501A0914601B091470130914301B9
:100AD00023E0230F2D3758F50196A11DB11D20935A
:100AE00043018093440190934501A0934601B09344
:100AF00047018091480190914901A0914A01B0912C
:100B00004B010196A11DB11D8093480190934901AD
:100B1000A0934A01B0934B01BF91AF919F918F91E8
:100B20003F912F910F900FBE0F901F90189526E8C0
:100B3000230F0296A11DB11DD2CF1F920F920FB6A7
:100B40000F9211242F933F934F935F936F937F9353
:100B50008F939F93AF93BF93CF93DF93EF93FF93C5
:100B600080914201C0915C02D0E087FF24C01092C6
:100B7000850010928400809142018F5F8093420132
:100B800080914201082E000C990B8C179D0724F4CC
:100B9000809142018C30C4F1809184009091850055
:100BA000049680349C4908F47AC080918400909126
:100BB0008500049676C080914201082E000C990BA6
:100BC0008C179D07C4F6E09142018E2FEE0F990B12
:100BD000FC01EE0FFF1FE80FF91FE85CFD4F80815D
:100BE00086FFC9CFE09142018E2FEE0F990BFC01D9
:100BF000EE0FFF1FE80FF91FE85CFD4F808160E0FA
:100C00008F730E94B301B7CF20918400309185008B
:100C1000E09142018E2FEE0F990BFC01EE0FFF1FAA
:100C2000E80FF91FE85CFD4F81819281820F931FCD
:100C30009093890080938800E09142018E2FEE0FFF
:100C4000990BFC01EE0FFF1FE80FF91FE85CFD4F49
:100C5000808186FF11C0E09142018E2FEE0F990B2B
:100C6000FC01EE0FFF1FE80FF91FE85CFD4F8081CC
:100C700061E08F730E94B301FF91EF91DF91CF91FB
:100C8000BF91AF919F918F917F916F915F914F91A4
:100C90003F912F910F900FBE0F901F90189580E4F9
:100CA0009CE990938900809388008FEF80934201A4
:100CB000E3CF109258011092570188EE93E0A0E024
:100CC000B0E08093590190935A01A0935B01B093D7
:100CD0005C0185E091E0909356018093550185EC8D
:100CE00090E0909362018093610184EC90E0909396
:100CF00064018093630180EC90E09093660180939F
:100D0000650181EC90E0909368018093670182EC2B
:100D100090E090936A018093690186EC90E0909353
:100D20006C0180936B0110926E0110926F01109212
:100D30007001109271011092F8011092F901109255
:100D4000FA011092FB011092FC011092FD01109229
:100D5000FE011092FF011092000210920102109207
:100D600002021092030210920402109205021092E5
:100D700006021092070280915C028C3008F0C0C01D
:100D800091E0980F90935C028093800290E0FC01C8
:100D9000EE0FFF1FE80FF91FE85CFD4F88EB9BE0AB
:100DA00092838183109286021092850210928802AB
:100DB000109287021092890210928A0210928B027E
:100DC00010928C0284EF91E090938E0280938D02BA
:100DD00080E699E09093900280938F0210929102A6
:100DE00010929202109293021092940282E390E089
:100DF0009093970280939602109299021092980213
:100E00008DEC9CECACECBDE380939A0290939B023A
:100E1000A0939C02B0939D0281E080939E028093F8
:100E20009F028093A0021092A1021092A20284EB72
:100E300090E0909384028093830280915C028C30D6
:100E400008F062C091E0980F90935C0280935D027D
:100E500090E0FC01EE0FFF1FE80FF91FE85CFD4F6B
:100E600088EB9BE09283818310926302109262026E
:100E7000109265021092640210926602109267024C
:100E8000109268021092690284EF91E090936B02D5
:100E900080936A0280E699E090936D0280936C02E1
:100EA00010926E0210926F021092700210927102F4
:100EB00082E390E090937402809373021092760222
:100EC000109275028DEC9CECACECBDE38093770244
:100ED00090937802A0937902B0937A0281E0809394
:100EE0007B0280937C0280937D0210927E0210929E
:100EF0007F0284EB90E090936102809360020895FA
:100F00008FEF809380024ECF8FEF80935D02ACCF46
:100F1000789484B5826084BD84B5816084BD85B5D4
:100F2000826085BD85B5816085BD80916E008160E0
:100F300080936E0010928100809181008260809386
:100F40008100809181008160809381008091800088
:100F50008160809380008091B10084608093B100B3
:100F60008091B00081608093B00080917A008460AD
:100F700080937A0080917A00826080937A008091D9
:100F80007A00816080937A0080917A0080688093F3
:100F90007A001092C1001092340210923502109221
:100FA0003602109237021092F4011092F50110925D
:100FB000F6011092F7010E9480026B017C014B0147
:100FC0005C0128EB820E2BE0921EA11CB11C0E943A
:100FD00080026C157D058E059F0528F08616970604
:100FE000A806B906A0F70E945B024B015C0138EE2F
:100FF000C32E33E0D32EE12CF12C0E945B02681942
:1010000079098A099B09683E734081059105A8F317
:1010100031E0C31AD108E108F10848EE840E43E03C
:10102000941EA11CB11CC114D104E104F10429F7E0
:10103000E0916501F091660182E08083E0916101B9
:10104000F09162011082E0916301F091640180E10E
:10105000808310926D01E0916901F0916A0186E050
:101060008083E0916701F0916801808180618083D5
:10107000E0916701F0916801808188608083E09150
:101080006701F0916801808180688083E091670149
:10109000F091680180818F7D80830E94800260933F
:1010A000F4017093F5018093F6019093F70183E1C9
:1010B00091E00E94AA040E9480026B017C014B0116
:1010C0005C018AE0880E911CA11CB11C0E94800268
:1010D0006C157D058E059F0528F086169706A806D7
:1010E000B906A0F7C1E0C09308020E948002609395
:1010F000F4017093F5018093F6019093F70184E277
:1011000091E00E94AA0466E080E892E00E941E033B
:1011100088E5E82E82E0F82EF0928E02E0928D02B1
:1011200000E619E01093900200938F0265E08DE5D0
:1011300092E00E941E03F0926B02E0926A0210930A
:101140006D0200936C028AE090E090939702809386
:10115000960290937402809373028DEC9CECACE445
:10116000BEE380939A0290939B02A0939C02B0935B
:101170009D028093770290937802A0937902B093B6
:101180007A02C093A002C0937D0289E00E9487008A
:1011900088E00E94870087E00E94870060E088E086
:1011A0000E94B30160E087E00E94B301D1E000E05B
:1011B00010E094EFC92EDD24D394E12CF12C24E629
:1011C000322E22242A940E948002672B682B692BDE
:1011D00009F4F0C00E948002809051019090520169
:1011E000A0905301B0905401681579058A059B05BC
:1011F00008F442C18090510190905201A090530197
:10120000B09054019B01AC01281939094A095B09C6
:1012100049015A013AEF83169104A104B10408F47C
:10122000D1C0609351017093520180935301909308
:101230005401C0920002D0920102E0920202F092A8
:1012400003021092040210920502109206021092FC
:1012500007028091F8019091F901A091FA01B091F3
:10126000FB018093FC019093FD01A093FE01B093DC
:10127000FF010E9480026093F8017093F90180934E
:10128000FA019093FB0185E591E00E94F600843617
:1012900011F40E945D040E9480026093F401709337
:1012A000F5018093F6019093F7010E9480024B01B3
:1012B0005C018BE291E00E94AA044AE061E070E0E8
:1012C00080E090E00E94B70482E391E00E94AA04CB
:1012D0004AE0C501B4010E94B70484E391E00E9492
:1012E000AA048091F8019091F901A091FA01B091BE
:1012F000FB01A5019401281B390B4A0B5B0BCA01AA
:10130000B9014AE00E94B70484E391E00E94AA0474
:101310006091F8017091F9018091FA019091FB01BF
:101320008090FC019090FD01A090FE01B090FF0123
:10133000681979098A099B094AE00E94B70486E383
:1013400091E00E94AA040E9480024AE00E94B70431
:1013500088E391E00E94AA048FE391E00E94AA042E
:101360000E9480022B013C015C014B0132E0830EA4
:10137000911CA11CB11C0E94800264157505860594
:10138000970528F086169706A806B906A0F785E502
:1013900091E00E94F600843611F40E945D040E94E0
:1013A00080026093F8017093F9018093FA019093A1
:1013B000FB0108C00E948002623071058105910521
:1013C00008F008CF0E94800280904D0190904E015D
:1013D000A0904F01B0905001681979098A099B09C2
:1013E000693873418105910568F10E94800260931C
:1013F0004D0170934E0180934F0190935001C09125
:101400000001CC2309F441C020924C016FEF70E041
:1014100089E00E94FF0161E088E00E94B30160E082
:1014200087E00E94B30170E060E080E892E00E94F3
:101430002A0464EB70E08DE592E00E942A04CD2737
:10144000C093000160914C0170E083E00E94FF01B5
:1014500080E892E00E944D038DE592E00E944D03EA
:101460000115110509F4AFCE0E941001882309F47B
:10147000AACE0E940000A7CE609351017093520142
:101480008093530190935401B5CE30924C016FEF8D
:1014900070E089E00E94FF0160E088E00E94B301F3
:1014A00061E087E00E94B30160E570E080E892E0CF
:1014B0000E942A0464E670E0BECFFC0188279927C9
:1014C000E89421912032E9F3293010F02E30C8F34E
:1014D0002B3241F02D3239F4689404C00E947B0A0B
:1014E000820F911D219120532A30C0F31EF4909554
:1014F00081959F4F08957AE0979F902D879F802D2B
:10150000910D112408950E94C50A08F481E0089500
:10151000E89409C097FB3EF490958095709561958D
:101520007F4F8F4F9F4F9923A9F0F92F96E9BB2743
:101530009395F695879577956795B795F111F8CFBF
:10154000FAF4BB0F11F460FF1BC06F5F7F4F8F4F2A
:101550009F4F16C0882311F096E911C0772321F020
:101560009EE8872F762F05C0662371F096E8862FB8
:1015700070E060E02AF09A95660F771F881FDAF70F
:10158000880F9695879597F90895990F0008550F3C
:10159000AA0BE0E8FEEF16161706E807F907C0F0F9
:1015A00012161306E407F50798F0621B730B840B01
:1015B000950B39F40A2661F0232B242B252B21F4DB
:1015C00008950A2609F4A140A6958FEF811D811D7B
:1015D00008950E94FC0A0C946D0B0E945F0B38F07A
:1015E0000E94660B20F0952311F00C94560B0C947E
:1015F0005C0B11240C94A10B0E947E0B70F3959F41
:10160000C1F3950F50E0551F629FF001729FBB27F9
:10161000F00DB11D639FAA27F00DB11DAA1F649F95
:101620006627B00DA11D661F829F2227B00DA11D48
:10163000621F739FB00DA11D621F839FA00D611DCE
:10164000221F749F3327A00D611D231F849F600DEF
:10165000211D822F762F6A2F11249F5750409AF018
:10166000F1F088234AF0EE0FFF1FBB1F661F771FA4
:10167000881F91505040A9F79E3F510580F00C946F
:10168000560B0C94A10B5F3FE4F3983ED4F3869580
:1016900077956795B795F795E7959F5FC1F7FE2B0F
:1016A000880F911D9695879597F9089597F99F67EB
:1016B00080E870E060E008959FEF80EC08950024DA
:1016C0000A941616170618060906089500240A94A7
:1016D00012161306140605060895092E0394000C2D
:1016E00011F4882352F0BB0F40F4BF2B11F460FFBC
:1016F00004C06F5F7F4F8F4F9F4F089557FD9058E5
:10170000440F551F59F05F3F71F04795880F97FBC5
:10171000991F61F09F3F79F087950895121613067F
:101720001406551FF2CF4695F1DF08C016161706AE
:101730001806991FF1CF86957105610508940895E3
:10174000E894BB2766277727CB0197F90895A1E294
:101750001A2EAA1BBB1BFD010DC0AA1FBB1FEE1F2B
:10176000FF1FA217B307E407F50720F0A21BB30B76
:10177000E40BF50B661F771F881F991F1A9469F7F2
:1017800060957095809590959B01AC01BD01CF014E
:101790000895052E97FB1EF400940E94E00B57FD60
:1017A00007D00E94A70B07FC03D04EF40C94E00B6B
:1017B00050954095309521953F4F4F4F5F4F08957D
:1017C00090958095709561957F4F8F4F9F4F0895AD
:1017D0000E94FB0BA59F900DB49F900DA49F800DC0
:1017E000911D11240895B7FF0C94E80B0E94E80B9B
:1017F000821B930B0895A29FB001B39FC001A39FCA
:10180000700D811D1124911DB29F700D811D112439
:10181000911D08955058BB27AA270E94220C0C94B2
:101820006D0B0E945F0B38F00E94660B20F039F4BC
:101830009F3F19F426F40C945C0B0EF4E095E7FB43
:101840000C94560BE92F0E947E0B58F3BA176207CF
:1018500073078407950720F079F4A6F50C94A00B84
:101860000EF4E0950B2EBA2FA02D0B01B9019001BB
:101870000C01CA01A0011124FF27591B99F0593FFF
:1018800050F4503E68F11A16F040A22F232F342F47
:101890004427585FF3CF469537952795A795F04095
:1018A0005395C9F77EF41F16BA0B620B730B840BAA
:1018B000BAF09150A1F0FF0FBB1F661F771F881F62
:1018C000C2F70EC0BA0F621F731F841F48F48795BA
:1018D00077956795B795F7959E3F08F0B0CF9395AC
:1018E000880F08F09927EE0F9795879508950E9425
:1018F0007E0C6894B1110C94A10B08950E94860B84
:1019000088F09F5798F0B92F9927B751B0F0E1F0C0
:10191000660F771F881F991F1AF0BA95C9F714C070
:10192000B13091F00E94A00BB1E008950C94A00B8F
:10193000672F782F8827B85F39F0B93FCCF38695A9
:1019400077956795B395D9F73EF490958095709506
:1019500061957F4F8F4F9F4F08950E94C50A08F4ED
:101960008FEF0895991B79E004C0991F961708F02E
:10197000961B881F7A95C9F780950895EE0FFF1F73
:0C1980000590F491E02D0994F894FFCF3D
:10198C0001000000004601A600D30093010401E20F
:10199C0000F600564D4450565F317C315F564D4435
:1019AC0050560A00564D4450525F00564D44504517
:1019BC005F003A323A007C005F564D445045000DB2
:0219CC000A000F
:107800000C94343C0C94513C0C94513C0C94513CE1
:107810000C94513C0C94513C0C94513C0C94513CB4
:107820000C94513C0C94513C0C94513C0C94513CA4
:107830000C94513C0C94513C0C94513C0C94513C94
:107840000C94513C0C94513C0C94513C0C94513C84
:107850000C94513C0C94513C0C94513C0C94513C74
:107860000C94513C0C94513C11241FBECFEFD8E036
:10787000DEBFCDBF11E0A0E0B1E0ECE9FFE702C060
:1078800005900D92A230B107D9F712E0A2E0B1E065
:1078900001C01D92AD30B107E1F70E942D3D0C945F
:1078A000CC3F0C94003C982F959595959595959582
:1078B000905D8F708A307CF0282F295A8091C0000B
:1078C00085FFFCCF9093C6008091C00085FFFCCF60
:1078D0002093C6000895282F205DF0CF982F809127
:1078E000C00085FFFCCF9093C6000895EF92FF92F1
:1078F0000F931F93EE24FF2487018091C00087FD22
:1079000017C00894E11CF11C011D111D81E4E8164B
:1079100082E4F8068FE0080780E0180770F3E09132
:107920000401F091050109958091C00087FFE9CF1E
:107930008091C6001F910F91FF90EF9008950E94D3
:10794000763C982F8091C00085FFFCCF9093C600B5
:1079500091362CF490330CF09053892F089597555D
:10796000892F08951F930E949F3C182F0E949F3CCF
:107970001295107F810F1F9108951F93182F882350
:1079800021F00E94763C1150E1F71F9108951F935A
:10799000182F0E94763C803249F0809103018F5F5E
:1079A000809303018530C1F01F9108958091C0003C
:1079B00085FFFCCF84E18093C6008091C00085FFE5
:1079C000FCCF1093C6008091C00085FFFCCF80E102
:1079D0008093C6001F910895E0910401F091050184
:1079E00009951F9108950E94763C803241F0809164
:1079F00003018F5F80930301853081F008958091AA
:107A0000C00085FFFCCF84E18093C6008091C00058
:107A100085FFFCCF80E18093C6000895E0910401CA
:107A2000F09105010995089540E951E08823A1F0FE
:107A30002D9A28EE33E0FA013197F1F721503040CA
:107A4000D1F72D9828EE33E0FA013197F1F7215064
:107A50003040D1F7815061F708953F924F925F9285
:107A60006F927F928F929F92AF92BF92CF92DF924E
:107A7000EF92FF920F931F93CF93DF93000080E16B
:107A80008093C4001092C50088E18093C10086E015
:107A90008093C2005098589A259A81E00E94143D24
:107AA00024E1F22E9EE1E92E85E9D82E0FE0C02ECA
:107AB00010E1B12EAA24A394B1E49B2EA6E58A2E50
:107AC000F2E57F2EE0E26E2E79E4572E63E5462E36
:107AD00050E5352E0E94763C8033B1F18133B9F107
:107AE000803409F46FC0813409F476C0823409F41B
:107AF00085C0853409F488C0803531F1823521F1A3
:107B0000813511F1853509F485C0863509F48DC0BC
:107B1000843609F496C0843709F403C1853709F423
:107B200072C1863709F466C0809103018F5F80932C
:107B30000301853079F6E0910401F0910501099582
:107B40000E94763C803351F60E94F33CC3CF0E94E2
:107B5000763C803249F78091C00085FFFCCFF092DF
:107B6000C6008091C00085FFFCCF9092C600809136
:107B7000C00085FFFCCF8092C6008091C00085FFC9
:107B8000FCCF7092C6008091C00085FFFCCF609250
:107B9000C6008091C00085FFFCCF5092C600809146
:107BA000C00085FFFCCF4092C6008091C00085FFD9
:107BB000FCCF3092C6008091C00085FFFCCFB09210
:107BC000C60088CF0E94763C863808F4BDCF0E945C
:107BD000763C0E94F33C7ECF0E94763C803809F4CC
:107BE0009CC0813809F40BC1823809F43CC1883942
:107BF00009F48FC080E00E94C73C6CCF84E10E94F2
:107C0000BD3C0E94F33C66CF85E00E94BD3C0E94D3
:107C1000F33C60CF0E94763C809306010E94763C44
:107C2000809307010E94F33C55CF0E94763C80333D
:107C300009F41DC183E00E94BD3C80E00E94C73C66
:107C400049CF0E94763C809309020E94763C809343
:107C5000080280910C028E7F80930C020E94763C79
:107C6000853409F415C18091080290910902892B8D
:107C700089F000E010E00E94763CF801E85FFE4FDA
:107C800080830F5F1F4F80910802909109020817AF
:107C9000190788F30E94763C803209F045CF809125
:107CA0000C0280FF01C16091060170910701660F0F
:107CB000771F7093070160930601A0910802B091AD
:107CC00009021097C9F0E8E0F1E09B01AD014E0F09
:107CD0005F1FF999FECF32BD21BD819180BDFA9A17
:107CE000F99A2F5F3F4FE417F50799F76A0F7B1F4B
:107CF00070930701609306018091C00085FFFCCF5F
:107D0000F092C6008091C00085FFFCCFB092C60003
:107D1000E1CE83E00E94C73CDDCE82E00E94C73CFA
:107D2000D9CE0E94763C809309020E94763C8093D3
:107D300008028091060190910701880F991F909386
:107D40000701809306010E94763C853409F4A6C0A1
:107D500080910C028E7F80930C020E94763C8032D0
:107D600009F0B8CE8091C00085FFFCCFF092C6002C
:107D7000609108027091090261157105B9F140E046
:107D800050E080910C02A82FA170B82FB27011C0E2
:107D9000BB2309F45CC0E0910601F0910701319624
:107DA000F0930701E09306014F5F5F4F46175707B7
:107DB000E8F4AA2369F3F999FECF209106013091E6
:107DC000070132BD21BDF89A90B58091C00085FFB2
:107DD000FCCF9093C6002F5F3F4F30930701209355
:107DE00006014F5F5F4F4617570718F38091C00099
:107DF00085FDE5CE8091C00085FFF8CFE0CE81E023
:107E00000E94C73C67CE0E94763C803209F08CCE3F
:107E10008091C00085FFFCCFF092C6008091C00029
:107E200085FFFCCFE092C6008091C00085FFFCCFAB
:107E3000D092C6008091C00085FFFCCFC092C600E2
:107E40008091C00085FFFCCFB092C60043CEE09188
:107E50000601F091070194918091C00085FFFCCF4D
:107E60009093C6009CCF80E10E94C73C33CE0E9415
:107E7000763C0E94763C182F0E94763C112309F430
:107E800083C0113009F484C08FE00E94C73C22CE29
:107E900080910C02816080930C02E5CE80910C02EF
:107EA000816080930C0259CF809107018823880F4D
:107EB000880B8A2180930B02809106019091070123
:107EC000880F991F90930701809306018091080203
:107ED00080FF09C080910802909109020196909359
:107EE000090280930802F894F999FECF1127E091D6
:107EF0000601F0910701C8E0D1E08091080290915D
:107F00000902103091F40091570001700130D9F34B
:107F100003E000935700E89500915700017001308D
:107F2000D9F301E100935700E89509901990009169
:107F3000570001700130D9F301E000935700E89534
:107F40001395103498F011270091570001700130FB
:107F5000D9F305E000935700E895009157000170B0
:107F60000130D9F301E100935700E895329602976A
:107F700009F0C7CF103011F00296E5CF112480919F
:107F8000C00085FFB9CEBCCE8EE10E94C73CA2CD19
:0C7F900085E90E94C73C9ECDF894FFCF0D
:027F9C00800063
:040000030000780081
:00000001FF